{
  "_format": "hh-sol-artifact-1",
  "contractName": "MyEpicNFT",
  "sourceName": "contracts/MyEpicNFT.sol",
  "abi": [
    {
      "inputs": [],
      "stateMutability": "nonpayable",
      "type": "constructor"
    },
    {
      "anonymous": false,
      "inputs": [
        {
          "indexed": true,
          "internalType": "address",
          "name": "owner",
          "type": "address"
        },
        {
          "indexed": true,
          "internalType": "address",
          "name": "approved",
          "type": "address"
        },
        {
          "indexed": true,
          "internalType": "uint256",
          "name": "tokenId",
          "type": "uint256"
        }
      ],
      "name": "Approval",
      "type": "event"
    },
    {
      "anonymous": false,
      "inputs": [
        {
          "indexed": true,
          "internalType": "address",
          "name": "owner",
          "type": "address"
        },
        {
          "indexed": true,
          "internalType": "address",
          "name": "operator",
          "type": "address"
        },
        {
          "indexed": false,
          "internalType": "bool",
          "name": "approved",
          "type": "bool"
        }
      ],
      "name": "ApprovalForAll",
      "type": "event"
    },
    {
      "anonymous": false,
      "inputs": [
        {
          "indexed": false,
          "internalType": "address",
          "name": "sender",
          "type": "address"
        },
        {
          "indexed": false,
          "internalType": "uint256",
          "name": "tokenId",
          "type": "uint256"
        }
      ],
      "name": "NewEpicNFTMinted",
      "type": "event"
    },
    {
      "anonymous": false,
      "inputs": [
        {
          "indexed": true,
          "internalType": "address",
          "name": "from",
          "type": "address"
        },
        {
          "indexed": true,
          "internalType": "address",
          "name": "to",
          "type": "address"
        },
        {
          "indexed": true,
          "internalType": "uint256",
          "name": "tokenId",
          "type": "uint256"
        }
      ],
      "name": "Transfer",
      "type": "event"
    },
    {
      "inputs": [
        {
          "internalType": "address",
          "name": "to",
          "type": "address"
        },
        {
          "internalType": "uint256",
          "name": "tokenId",
          "type": "uint256"
        }
      ],
      "name": "approve",
      "outputs": [],
      "stateMutability": "nonpayable",
      "type": "function"
    },
    {
      "inputs": [
        {
          "internalType": "address",
          "name": "owner",
          "type": "address"
        }
      ],
      "name": "balanceOf",
      "outputs": [
        {
          "internalType": "uint256",
          "name": "",
          "type": "uint256"
        }
      ],
      "stateMutability": "view",
      "type": "function"
    },
    {
      "inputs": [
        {
          "internalType": "uint256",
          "name": "tokenId",
          "type": "uint256"
        }
      ],
      "name": "getApproved",
      "outputs": [
        {
          "internalType": "address",
          "name": "",
          "type": "address"
        }
      ],
      "stateMutability": "view",
      "type": "function"
    },
    {
      "inputs": [
        {
          "internalType": "address",
          "name": "owner",
          "type": "address"
        },
        {
          "internalType": "address",
          "name": "operator",
          "type": "address"
        }
      ],
      "name": "isApprovedForAll",
      "outputs": [
        {
          "internalType": "bool",
          "name": "",
          "type": "bool"
        }
      ],
      "stateMutability": "view",
      "type": "function"
    },
    {
      "inputs": [],
      "name": "makeAnEpicNFT",
      "outputs": [],
      "stateMutability": "nonpayable",
      "type": "function"
    },
    {
      "inputs": [],
      "name": "name",
      "outputs": [
        {
          "internalType": "string",
          "name": "",
          "type": "string"
        }
      ],
      "stateMutability": "view",
      "type": "function"
    },
    {
      "inputs": [
        {
          "internalType": "uint256",
          "name": "tokenId",
          "type": "uint256"
        }
      ],
      "name": "ownerOf",
      "outputs": [
        {
          "internalType": "address",
          "name": "",
          "type": "address"
        }
      ],
      "stateMutability": "view",
      "type": "function"
    },
    {
      "inputs": [
        {
          "internalType": "uint256",
          "name": "tokenId",
          "type": "uint256"
        }
      ],
      "name": "pickRandomFirstWord",
      "outputs": [
        {
          "internalType": "string",
          "name": "",
          "type": "string"
        }
      ],
      "stateMutability": "view",
      "type": "function"
    },
    {
      "inputs": [
        {
          "internalType": "uint256",
          "name": "tokenId",
          "type": "uint256"
        }
      ],
      "name": "pickRandomSecondWord",
      "outputs": [
        {
          "internalType": "string",
          "name": "",
          "type": "string"
        }
      ],
      "stateMutability": "view",
      "type": "function"
    },
    {
      "inputs": [
        {
          "internalType": "uint256",
          "name": "tokenId",
          "type": "uint256"
        }
      ],
      "name": "pickRandomThirdWord",
      "outputs": [
        {
          "internalType": "string",
          "name": "",
          "type": "string"
        }
      ],
      "stateMutability": "view",
      "type": "function"
    },
    {
      "inputs": [
        {
          "internalType": "address",
          "name": "from",
          "type": "address"
        },
        {
          "internalType": "address",
          "name": "to",
          "type": "address"
        },
        {
          "internalType": "uint256",
          "name": "tokenId",
          "type": "uint256"
        }
      ],
      "name": "safeTransferFrom",
      "outputs": [],
      "stateMutability": "nonpayable",
      "type": "function"
    },
    {
      "inputs": [
        {
          "internalType": "address",
          "name": "from",
          "type": "address"
        },
        {
          "internalType": "address",
          "name": "to",
          "type": "address"
        },
        {
          "internalType": "uint256",
          "name": "tokenId",
          "type": "uint256"
        },
        {
          "internalType": "bytes",
          "name": "_data",
          "type": "bytes"
        }
      ],
      "name": "safeTransferFrom",
      "outputs": [],
      "stateMutability": "nonpayable",
      "type": "function"
    },
    {
      "inputs": [
        {
          "internalType": "address",
          "name": "operator",
          "type": "address"
        },
        {
          "internalType": "bool",
          "name": "approved",
          "type": "bool"
        }
      ],
      "name": "setApprovalForAll",
      "outputs": [],
      "stateMutability": "nonpayable",
      "type": "function"
    },
    {
      "inputs": [
        {
          "internalType": "bytes4",
          "name": "interfaceId",
          "type": "bytes4"
        }
      ],
      "name": "supportsInterface",
      "outputs": [
        {
          "internalType": "bool",
          "name": "",
          "type": "bool"
        }
      ],
      "stateMutability": "view",
      "type": "function"
    },
    {
      "inputs": [],
      "name": "symbol",
      "outputs": [
        {
          "internalType": "string",
          "name": "",
          "type": "string"
        }
      ],
      "stateMutability": "view",
      "type": "function"
    },
    {
      "inputs": [],
      "name": "tokenIds",
      "outputs": [
        {
          "internalType": "uint256",
          "name": "_value",
          "type": "uint256"
        }
      ],
      "stateMutability": "view",
      "type": "function"
    },
    {
      "inputs": [
        {
          "internalType": "uint256",
          "name": "tokenId",
          "type": "uint256"
        }
      ],
      "name": "tokenURI",
      "outputs": [
        {
          "internalType": "string",
          "name": "",
          "type": "string"
        }
      ],
      "stateMutability": "view",
      "type": "function"
    },
    {
      "inputs": [
        {
          "internalType": "address",
          "name": "from",
          "type": "address"
        },
        {
          "internalType": "address",
          "name": "to",
          "type": "address"
        },
        {
          "internalType": "uint256",
          "name": "tokenId",
          "type": "uint256"
        }
      ],
      "name": "transferFrom",
      "outputs": [],
      "stateMutability": "nonpayable",
      "type": "function"
    }
  ],
  "bytecode": "0x608060405260405180610160016040528061012f81526020016200453661012f913960089080519060200190620000389291906200067e565b506040518060c001604052806040518060400160405280600281526020017f4d7900000000000000000000000000000000000000000000000000000000000081525081526020016040518060400160405280600481526020017f596f75720000000000000000000000000000000000000000000000000000000081525081526020016040518060400160405280600581526020017f546865697200000000000000000000000000000000000000000000000000000081525081526020016040518060400160405280600381526020017f4f7572000000000000000000000000000000000000000000000000000000000081525081526020016040518060400160405280600381526020017f486973000000000000000000000000000000000000000000000000000000000081525081526020016040518060400160405280600381526020017f48657200000000000000000000000000000000000000000000000000000000008152508152506009906006620001b69291906200070f565b506040518060c001604052806040518060400160405280600981526020017f46616e746173746963000000000000000000000000000000000000000000000081525081526020016040518060400160405280600a81526020017f496e6372656469626c650000000000000000000000000000000000000000000081525081526020016040518060400160405280600881526020017f446f6d696e616e7400000000000000000000000000000000000000000000000081525081526020016040518060400160405280600581526020017f4372617a7900000000000000000000000000000000000000000000000000000081525081526020016040518060400160405280600581526020017f486170707900000000000000000000000000000000000000000000000000000081525081526020016040518060400160405280600981526020017f457863656c6c656e740000000000000000000000000000000000000000000000815250815250600a906006620003349291906200070f565b506040518060c001604052806040518060400160405280600681526020017f436972636c65000000000000000000000000000000000000000000000000000081525081526020016040518060400160405280600881526020017f547269616e676c6500000000000000000000000000000000000000000000000081525081526020016040518060400160405280600681526020017f537175617265000000000000000000000000000000000000000000000000000081525081526020016040518060400160405280600981526020017f2050656e7461676f6e000000000000000000000000000000000000000000000081525081526020016040518060400160405280600781526020017f48657861676f6e0000000000000000000000000000000000000000000000000081525081526020016040518060400160405280600881526020017f4865707461676f6e000000000000000000000000000000000000000000000000815250815250600b906006620004b29291906200070f565b50348015620004c057600080fd5b506040518060400160405280600981526020017f5371756172654e465400000000000000000000000000000000000000000000008152506040518060400160405280600681526020017f53515541524500000000000000000000000000000000000000000000000000008152508160009080519060200190620005459291906200067e565b5080600190805190602001906200055e9291906200067e565b505050620005ac6040518060400160405280601881526020017f54686973206973206d79204e465420636f6e74726163742e0000000000000000815250620005b260201b6200120c1760201c565b62000930565b6200065281604051602401620005c9919062000844565b6040516020818303038152906040527f41304fac000000000000000000000000000000000000000000000000000000007bffffffffffffffffffffffffffffffffffffffffffffffffffffffff19166020820180517bffffffffffffffffffffffffffffffffffffffffffffffffffffffff83818316178352505050506200065560201b60201c565b50565b60008151905060006a636f6e736f6c652e6c6f679050602083016000808483855afa5050505050565b8280546200068c90620008ba565b90600052602060002090601f016020900481019282620006b05760008555620006fc565b82601f10620006cb57805160ff1916838001178555620006fc565b82800160010185558215620006fc579182015b82811115620006fb578251825591602001919060010190620006de565b5b5090506200070b919062000776565b5090565b82805482825590600052602060002090810192821562000763579160200282015b8281111562000762578251829080519060200190620007519291906200067e565b509160200191906001019062000730565b5b50905062000772919062000795565b5090565b5b808211156200079157600081600090555060010162000777565b5090565b5b80821115620007b95760008181620007af9190620007bd565b5060010162000796565b5090565b508054620007cb90620008ba565b6000825580601f10620007df575062000800565b601f016020900490600052602060002090810190620007ff919062000776565b5b50565b6000620008108262000868565b6200081c818562000873565b93506200082e81856020860162000884565b62000839816200091f565b840191505092915050565b6000602082019050818103600083015262000860818462000803565b905092915050565b600081519050919050565b600082825260208201905092915050565b60005b83811015620008a457808201518184015260208101905062000887565b83811115620008b4576000848401525b50505050565b60006002820490506001821680620008d357607f821691505b60208210811415620008ea57620008e9620008f0565b5b50919050565b7f4e487b7100000000000000000000000000000000000000000000000000000000600052602260045260246000fd5b6000601f19601f8301169050919050565b613bf680620009406000396000f3fe608060405234801561001057600080fd5b50600436106101165760003560e01c8063714cff56116100a2578063b88d4fde11610071578063b88d4fde14610305578063c575757a14610321578063c87b56dd14610351578063de9d132f14610381578063e985e9c51461038b57610116565b8063714cff561461027d57806395d89b411461029b578063a22cb465146102b9578063b187301f146102d557610116565b806323b872dd116100e957806323b872dd146101b55780632de38d68146101d157806342842e0e146102015780636352211e1461021d57806370a082311461024d57610116565b806301ffc9a71461011b57806306fdde031461014b578063081812fc14610169578063095ea7b314610199575b600080fd5b610135600480360381019061013091906126d4565b6103bb565b6040516101429190612dde565b60405180910390f35b61015361049d565b6040516101609190612df9565b60405180910390f35b610183600480360381019061017e9190612726565b61052f565b6040516101909190612d4e565b60405180910390f35b6101b360048036038101906101ae9190612698565b6105b4565b005b6101cf60048036038101906101ca9190612592565b6106cc565b005b6101eb60048036038101906101e69190612726565b61072c565b6040516101f89190612df9565b60405180910390f35b61021b60048036038101906102169190612592565b6108c8565b005b61023760048036038101906102329190612726565b6108e8565b6040516102449190612d4e565b60405180910390f35b6102676004803603810190610262919061252d565b61099a565b6040516102749190613089565b60405180910390f35b610285610a52565b6040516102929190613089565b60405180910390f35b6102a3610a5e565b6040516102b09190612df9565b60405180910390f35b6102d360048036038101906102ce919061265c565b610af0565b005b6102ef60048036038101906102ea9190612726565b610b06565b6040516102fc9190612df9565b60405180910390f35b61031f600480360381019061031a91906125e1565b610c24565b005b61033b60048036038101906103369190612726565b610c86565b6040516103489190612df9565b60405180910390f35b61036b60048036038101906103669190612726565b610da4565b6040516103789190612df9565b60405180910390f35b610389610ef6565b005b6103a560048036038101906103a09190612556565b611178565b6040516103b29190612dde565b60405180910390f35b60007f80ac58cd000000000000000000000000000000000000000000000000000000007bffffffffffffffffffffffffffffffffffffffffffffffffffffffff1916827bffffffffffffffffffffffffffffffffffffffffffffffffffffffff1916148061048657507f5b5e139f000000000000000000000000000000000000000000000000000000007bffffffffffffffffffffffffffffffffffffffffffffffffffffffff1916827bffffffffffffffffffffffffffffffffffffffffffffffffffffffff1916145b806104965750610495826112a5565b5b9050919050565b6060600080546104ac9061331d565b80601f01602080910402602001604051908101604052809291908181526020018280546104d89061331d565b80156105255780601f106104fa57610100808354040283529160200191610525565b820191906000526020600020905b81548152906001019060200180831161050857829003601f168201915b5050505050905090565b600061053a8261130f565b610579576040517f08c379a000000000000000000000000000000000000000000000000000000000815260040161057090613009565b60405180910390fd5b6004600083815260200190815260200160002060009054906101000a900473ffffffffffffffffffffffffffffffffffffffff169050919050565b60006105bf826108e8565b90508073ffffffffffffffffffffffffffffffffffffffff168373ffffffffffffffffffffffffffffffffffffffff161415610630576040517f08c379a000000000000000000000000000000000000000000000000000000000815260040161062790613049565b60405180910390fd5b8073ffffffffffffffffffffffffffffffffffffffff1661064f61137b565b73ffffffffffffffffffffffffffffffffffffffff16148061067e575061067d8161067861137b565b611178565b5b6106bd576040517f08c379a00000000000000000000000000000000000000000000000000000000081526004016106b490612f49565b60405180910390fd5b6106c78383611383565b505050565b6106dd6106d761137b565b8261143c565b61071c576040517f08c379a000000000000000000000000000000000000000000000000000000000815260040161071390613069565b60405180910390fd5b61072783838361151a565b505050565b6060600061076061073c84611781565b60405160200161074c9190612d0a565b60405160208183030381529060405261192e565b90506107a16040518060400160405280600d81526020017f72616e64202d20736565643a200000000000000000000000000000000000000081525082611961565b600980549050816107b291906133c9565b90506107f36040518060400160405280601381526020017f72616e64202d20666972737420776f72643a200000000000000000000000000081525082611961565b6009818154811061082d577f4e487b7100000000000000000000000000000000000000000000000000000000600052603260045260246000fd5b9060005260206000200180546108429061331d565b80601f016020809104026020016040519081016040528092919081815260200182805461086e9061331d565b80156108bb5780601f10610890576101008083540402835291602001916108bb565b820191906000526020600020905b81548152906001019060200180831161089e57829003601f168201915b5050505050915050919050565b6108e383838360405180602001604052806000815250610c24565b505050565b6000806002600084815260200190815260200160002060009054906101000a900473ffffffffffffffffffffffffffffffffffffffff169050600073ffffffffffffffffffffffffffffffffffffffff168173ffffffffffffffffffffffffffffffffffffffff161415610991576040517f08c379a000000000000000000000000000000000000000000000000000000000815260040161098890612f89565b60405180910390fd5b80915050919050565b60008073ffffffffffffffffffffffffffffffffffffffff168273ffffffffffffffffffffffffffffffffffffffff161415610a0b576040517f08c379a0000000000000000000000000000000000000000000000000000000008152600401610a0290612f69565b60405180910390fd5b600360008373ffffffffffffffffffffffffffffffffffffffff1673ffffffffffffffffffffffffffffffffffffffff168152602001908152602001600020549050919050565b60078060000154905081565b606060018054610a6d9061331d565b80601f0160208091040260200160405190810160405280929190818152602001828054610a999061331d565b8015610ae65780601f10610abb57610100808354040283529160200191610ae6565b820191906000526020600020905b815481529060010190602001808311610ac957829003601f168201915b5050505050905090565b610b02610afb61137b565b83836119fd565b5050565b60606000610b3a610b1684611781565b604051602001610b269190612ca3565b60405160208183030381529060405261192e565b9050600a8054905081610b4d91906133c9565b9050600a8181548110610b89577f4e487b7100000000000000000000000000000000000000000000000000000000600052603260045260246000fd5b906000526020600020018054610b9e9061331d565b80601f0160208091040260200160405190810160405280929190818152602001828054610bca9061331d565b8015610c175780601f10610bec57610100808354040283529160200191610c17565b820191906000526020600020905b815481529060010190602001808311610bfa57829003601f168201915b5050505050915050919050565b610c35610c2f61137b565b8361143c565b610c74576040517f08c379a0000000000000000000000000000000000000000000000000000000008152600401610c6b90613069565b60405180910390fd5b610c8084848484611b6a565b50505050565b60606000610cba610c9684611781565b604051602001610ca69190612c81565b60405160208183030381529060405261192e565b9050600b8054905081610ccd91906133c9565b9050600b8181548110610d09577f4e487b7100000000000000000000000000000000000000000000000000000000600052603260045260246000fd5b906000526020600020018054610d1e9061331d565b80601f0160208091040260200160405190810160405280929190818152602001828054610d4a9061331d565b8015610d975780601f10610d6c57610100808354040283529160200191610d97565b820191906000526020600020905b815481529060010190602001808311610d7a57829003601f168201915b5050505050915050919050565b6060610daf8261130f565b610dee576040517f08c379a0000000000000000000000000000000000000000000000000000000008152600401610de590612fe9565b60405180910390fd5b6000600660008481526020019081526020016000208054610e0e9061331d565b80601f0160208091040260200160405190810160405280929190818152602001828054610e3a9061331d565b8015610e875780601f10610e5c57610100808354040283529160200191610e87565b820191906000526020600020905b815481529060010190602001808311610e6a57829003601f168201915b505050505090506000610e98611bc6565b9050600081511415610eae578192505050610ef1565b600082511115610ee3578082604051602001610ecb929190612bfd565b60405160208183030381529060405292505050610ef1565b610eec84611bdd565b925050505b919050565b600a610f026007611c84565b10610f0c57600080fd5b6000610f186007611c84565b90506000610f258261072c565b90506000610f3283610b06565b90506000610f3f84610c86565b90506000838383604051602001610f5893929190612c21565b60405160208183030381529060405290506000600882604051602001610f7f929190612c52565b6040516020818303038152906040529050610fce6040518060400160405280601581526020017f0a2d2d2d2d2d205356472064617461202d2d2d2d2d000000000000000000000081525061120c565b610fd78161120c565b6110156040518060400160405280601581526020017f2d2d2d2d2d2d2d2d2d2d2d2d2d2d2d2d2d2d2d2d0a000000000000000000000081525061120c565b60006110498361102484611c92565b604051602001611035929190612cc5565b604051602081830303815290604052611c92565b905060008160405160200161105e9190612d2c565b60405160208183030381529060405290506110ad6040518060400160405280601581526020017f0a2d2d2d2d2d20546f6b656e20555249202d2d2d2d000000000000000000000081525061120c565b6110b68161120c565b6110f46040518060400160405280601581526020017f2d2d2d2d2d2d2d2d2d2d2d2d2d2d2d2d2d2d2d2d0a000000000000000000000081525061120c565b6110fe3389611e50565b6111088882611e6e565b61112b604051806060016040528060258152602001613b5c602591398933611ee2565b6111356007611f81565b7febb98688741ffa4c7589bf325de30cf7becb63de567842e1ccdb6cb949fdc82c3389604051611166929190612db5565b60405180910390a15050505050505050565b6000600560008473ffffffffffffffffffffffffffffffffffffffff1673ffffffffffffffffffffffffffffffffffffffff16815260200190815260200160002060008373ffffffffffffffffffffffffffffffffffffffff1673ffffffffffffffffffffffffffffffffffffffff16815260200190815260200160002060009054906101000a900460ff16905092915050565b6112a2816040516024016112209190612df9565b6040516020818303038152906040527f41304fac000000000000000000000000000000000000000000000000000000007bffffffffffffffffffffffffffffffffffffffffffffffffffffffff19166020820180517bffffffffffffffffffffffffffffffffffffffffffffffffffffffff8381831617835250505050611f97565b50565b60007f01ffc9a7000000000000000000000000000000000000000000000000000000007bffffffffffffffffffffffffffffffffffffffffffffffffffffffff1916827bffffffffffffffffffffffffffffffffffffffffffffffffffffffff1916149050919050565b60008073ffffffffffffffffffffffffffffffffffffffff166002600084815260200190815260200160002060009054906101000a900473ffffffffffffffffffffffffffffffffffffffff1673ffffffffffffffffffffffffffffffffffffffff1614159050919050565b600033905090565b816004600083815260200190815260200160002060006101000a81548173ffffffffffffffffffffffffffffffffffffffff021916908373ffffffffffffffffffffffffffffffffffffffff160217905550808273ffffffffffffffffffffffffffffffffffffffff166113f6836108e8565b73ffffffffffffffffffffffffffffffffffffffff167f8c5be1e5ebec7d5bd14f71427d1e84f3dd0314c0f7b2291e5b200ac8c7c3b92560405160405180910390a45050565b60006114478261130f565b611486576040517f08c379a000000000000000000000000000000000000000000000000000000000815260040161147d90612f29565b60405180910390fd5b6000611491836108e8565b90508073ffffffffffffffffffffffffffffffffffffffff168473ffffffffffffffffffffffffffffffffffffffff1614806114d357506114d28185611178565b5b8061151157508373ffffffffffffffffffffffffffffffffffffffff166114f98461052f565b73ffffffffffffffffffffffffffffffffffffffff16145b91505092915050565b8273ffffffffffffffffffffffffffffffffffffffff1661153a826108e8565b73ffffffffffffffffffffffffffffffffffffffff1614611590576040517f08c379a000000000000000000000000000000000000000000000000000000000815260040161158790612ea9565b60405180910390fd5b600073ffffffffffffffffffffffffffffffffffffffff168273ffffffffffffffffffffffffffffffffffffffff161415611600576040517f08c379a00000000000000000000000000000000000000000000000000000000081526004016115f790612ee9565b60405180910390fd5b61160b838383611fc0565b611616600082611383565b6001600360008573ffffffffffffffffffffffffffffffffffffffff1673ffffffffffffffffffffffffffffffffffffffff16815260200190815260200160002060008282546116669190613233565b925050819055506001600360008473ffffffffffffffffffffffffffffffffffffffff1673ffffffffffffffffffffffffffffffffffffffff16815260200190815260200160002060008282546116bd9190613152565b92505081905550816002600083815260200190815260200160002060006101000a81548173ffffffffffffffffffffffffffffffffffffffff021916908373ffffffffffffffffffffffffffffffffffffffff160217905550808273ffffffffffffffffffffffffffffffffffffffff168473ffffffffffffffffffffffffffffffffffffffff167fddf252ad1be2c89b69c2b068fc378daa952ba7f163c4a11628f55a4df523b3ef60405160405180910390a461177c838383611fc5565b505050565b606060008214156117c9576040518060400160405280600181526020017f30000000000000000000000000000000000000000000000000000000000000008152509050611929565b600082905060005b600082146117fb5780806117e490613380565b915050600a826117f491906131a8565b91506117d1565b60008167ffffffffffffffff81111561183d577f4e487b7100000000000000000000000000000000000000000000000000000000600052604160045260246000fd5b6040519080825280601f01601f19166020018201604052801561186f5781602001600182028036833780820191505090505b5090505b60008514611922576001826118889190613233565b9150600a8561189791906133c9565b60306118a39190613152565b60f81b8183815181106118df577f4e487b7100000000000000000000000000000000000000000000000000000000600052603260045260246000fd5b60200101907effffffffffffffffffffffffffffffffffffffffffffffffffffffffffffff1916908160001a905350600a8561191b91906131a8565b9450611873565b8093505050505b919050565b6000816040516020016119419190612be6565b6040516020818303038152906040528051906020012060001c9050919050565b6119f98282604051602401611977929190612e1b565b6040516020818303038152906040527f9710a9d0000000000000000000000000000000000000000000000000000000007bffffffffffffffffffffffffffffffffffffffffffffffffffffffff19166020820180517bffffffffffffffffffffffffffffffffffffffffffffffffffffffff8381831617835250505050611f97565b5050565b8173ffffffffffffffffffffffffffffffffffffffff168373ffffffffffffffffffffffffffffffffffffffff161415611a6c576040517f08c379a0000000000000000000000000000000000000000000000000000000008152600401611a6390612f09565b60405180910390fd5b80600560008573ffffffffffffffffffffffffffffffffffffffff1673ffffffffffffffffffffffffffffffffffffffff16815260200190815260200160002060008473ffffffffffffffffffffffffffffffffffffffff1673ffffffffffffffffffffffffffffffffffffffff16815260200190815260200160002060006101000a81548160ff0219169083151502179055508173ffffffffffffffffffffffffffffffffffffffff168373ffffffffffffffffffffffffffffffffffffffff167f17307eab39ab6107e8899845ad3d59bd9653f200f220920489ca2b5937696c3183604051611b5d9190612dde565b60405180910390a3505050565b611b7584848461151a565b611b8184848484611fca565b611bc0576040517f08c379a0000000000000000000000000000000000000000000000000000000008152600401611bb790612e89565b60405180910390fd5b50505050565b606060405180602001604052806000815250905090565b6060611be88261130f565b611c27576040517f08c379a0000000000000000000000000000000000000000000000000000000008152600401611c1e90613029565b60405180910390fd5b6000611c31611bc6565b90506000815111611c515760405180602001604052806000815250611c7c565b80611c5b84611781565b604051602001611c6c929190612bfd565b6040516020818303038152906040525b915050919050565b600081600001549050919050565b60606000825190506000811415611cbb5760405180602001604052806000815250915050611e4b565b60006003600283611ccc9190613152565b611cd691906131a8565b6004611ce291906131d9565b90506000602082611cf39190613152565b67ffffffffffffffff811115611d32577f4e487b7100000000000000000000000000000000000000000000000000000000600052604160045260246000fd5b6040519080825280601f01601f191660200182016040528015611d645781602001600182028036833780820191505090505b5090506000604051806060016040528060408152602001613b81604091399050600181016020830160005b86811015611e085760038101905062ffffff818a015116603f8160121c168401518060081b905060ff603f83600c1c1686015116810190508060081b905060ff603f8360061c1686015116810190508060081b905060ff603f831686015116810190508060e01b90508084526004840193505050611d8f565b506003860660018114611e225760028114611e3257611e3d565b613d3d60f01b6002830352611e3d565b603d60f81b60018303525b508484525050819450505050505b919050565b611e6a828260405180602001604052806000815250612161565b5050565b611e778261130f565b611eb6576040517f08c379a0000000000000000000000000000000000000000000000000000000008152600401611ead90612fa9565b60405180910390fd5b80600660008481526020019081526020016000209080519060200190611edd9291906123b9565b505050565b611f7c838383604051602401611efa93929190612e4b565b6040516020818303038152906040527fe3849f79000000000000000000000000000000000000000000000000000000007bffffffffffffffffffffffffffffffffffffffffffffffffffffffff19166020820180517bffffffffffffffffffffffffffffffffffffffffffffffffffffffff8381831617835250505050611f97565b505050565b6001816000016000828254019250508190555050565b60008151905060006a636f6e736f6c652e6c6f679050602083016000808483855afa5050505050565b505050565b505050565b6000611feb8473ffffffffffffffffffffffffffffffffffffffff166121bc565b15612154578373ffffffffffffffffffffffffffffffffffffffff1663150b7a0261201461137b565b8786866040518563ffffffff1660e01b81526004016120369493929190612d69565b602060405180830381600087803b15801561205057600080fd5b505af192505050801561208157506040513d601f19601f8201168201806040525081019061207e91906126fd565b60015b612104573d80600081146120b1576040519150601f19603f3d011682016040523d82523d6000602084013e6120b6565b606091505b506000815114156120fc576040517f08c379a00000000000000000000000000000000000000000000000000000000081526004016120f390612e89565b60405180910390fd5b805181602001fd5b63150b7a0260e01b7bffffffffffffffffffffffffffffffffffffffffffffffffffffffff1916817bffffffffffffffffffffffffffffffffffffffffffffffffffffffff191614915050612159565b600190505b949350505050565b61216b83836121df565b6121786000848484611fca565b6121b7576040517f08c379a00000000000000000000000000000000000000000000000000000000081526004016121ae90612e89565b60405180910390fd5b505050565b6000808273ffffffffffffffffffffffffffffffffffffffff163b119050919050565b600073ffffffffffffffffffffffffffffffffffffffff168273ffffffffffffffffffffffffffffffffffffffff16141561224f576040517f08c379a000000000000000000000000000000000000000000000000000000000815260040161224690612fc9565b60405180910390fd5b6122588161130f565b15612298576040517f08c379a000000000000000000000000000000000000000000000000000000000815260040161228f90612ec9565b60405180910390fd5b6122a460008383611fc0565b6001600360008473ffffffffffffffffffffffffffffffffffffffff1673ffffffffffffffffffffffffffffffffffffffff16815260200190815260200160002060008282546122f49190613152565b92505081905550816002600083815260200190815260200160002060006101000a81548173ffffffffffffffffffffffffffffffffffffffff021916908373ffffffffffffffffffffffffffffffffffffffff160217905550808273ffffffffffffffffffffffffffffffffffffffff16600073ffffffffffffffffffffffffffffffffffffffff167fddf252ad1be2c89b69c2b068fc378daa952ba7f163c4a11628f55a4df523b3ef60405160405180910390a46123b560008383611fc5565b5050565b8280546123c59061331d565b90600052602060002090601f0160209004810192826123e7576000855561242e565b82601f1061240057805160ff191683800117855561242e565b8280016001018555821561242e579182015b8281111561242d578251825591602001919060010190612412565b5b50905061243b919061243f565b5090565b5b80821115612458576000816000905550600101612440565b5090565b600061246f61246a846130c9565b6130a4565b90508281526020810184848401111561248757600080fd5b6124928482856132db565b509392505050565b6000813590506124a981613aff565b92915050565b6000813590506124be81613b16565b92915050565b6000813590506124d381613b2d565b92915050565b6000815190506124e881613b2d565b92915050565b600082601f8301126124ff57600080fd5b813561250f84826020860161245c565b91505092915050565b60008135905061252781613b44565b92915050565b60006020828403121561253f57600080fd5b600061254d8482850161249a565b91505092915050565b6000806040838503121561256957600080fd5b60006125778582860161249a565b92505060206125888582860161249a565b9150509250929050565b6000806000606084860312156125a757600080fd5b60006125b58682870161249a565b93505060206125c68682870161249a565b92505060406125d786828701612518565b9150509250925092565b600080600080608085870312156125f757600080fd5b60006126058782880161249a565b94505060206126168782880161249a565b935050604061262787828801612518565b925050606085013567ffffffffffffffff81111561264457600080fd5b612650878288016124ee565b91505092959194509250565b6000806040838503121561266f57600080fd5b600061267d8582860161249a565b925050602061268e858286016124af565b9150509250929050565b600080604083850312156126ab57600080fd5b60006126b98582860161249a565b92505060206126ca85828601612518565b9150509250929050565b6000602082840312156126e657600080fd5b60006126f4848285016124c4565b91505092915050565b60006020828403121561270f57600080fd5b600061271d848285016124d9565b91505092915050565b60006020828403121561273857600080fd5b600061274684828501612518565b91505092915050565b61275881613267565b82525050565b61276781613279565b82525050565b60006127788261310f565b6127828185613125565b93506127928185602086016132ea565b61279b816134b6565b840191505092915050565b60006127b18261311a565b6127bb8185613136565b93506127cb8185602086016132ea565b6127d4816134b6565b840191505092915050565b60006127ea8261311a565b6127f48185613147565b93506128048185602086016132ea565b80840191505092915050565b6000815461281d8161331d565b6128278186613147565b94506001821660008114612842576001811461285357612886565b60ff19831686528186019350612886565b61285c856130fa565b60005b8381101561287e5781548189015260018201915060208101905061285f565b838801955050505b50505092915050565b600061289c603283613136565b91506128a7826134c7565b604082019050919050565b60006128bf602583613136565b91506128ca82613516565b604082019050919050565b60006128e2601c83613136565b91506128ed82613565565b602082019050919050565b6000612905600a83613147565b91506129108261358e565b600a82019050919050565b6000612928602483613136565b9150612933826135b7565b604082019050919050565b600061294b601983613136565b915061295682613606565b602082019050919050565b600061296e606383613147565b91506129798261362f565b606382019050919050565b6000612991600b83613147565b915061299c826136ca565b600b82019050919050565b60006129b4602c83613136565b91506129bf826136f3565b604082019050919050565b60006129d7600d83613147565b91506129e282613742565b600d82019050919050565b60006129fa603883613136565b9150612a058261376b565b604082019050919050565b6000612a1d602a83613136565b9150612a28826137ba565b604082019050919050565b6000612a40602983613136565b9150612a4b82613809565b604082019050919050565b6000612a63602e83613136565b9150612a6e82613858565b604082019050919050565b6000612a86600283613147565b9150612a91826138a7565b600282019050919050565b6000612aa9602083613136565b9150612ab4826138d0565b602082019050919050565b6000612acc603183613136565b9150612ad7826138f9565b604082019050919050565b6000612aef602c83613136565b9150612afa82613948565b604082019050919050565b6000612b12602f83613136565b9150612b1d82613997565b604082019050919050565b6000612b35600a83613147565b9150612b40826139e6565b600a82019050919050565b6000612b58602183613136565b9150612b6382613a0f565b604082019050919050565b6000612b7b600a83613147565b9150612b8682613a5e565b600a82019050919050565b6000612b9e601d83613147565b9150612ba982613a87565b601d82019050919050565b6000612bc1603183613136565b9150612bcc82613ab0565b604082019050919050565b612be0816132d1565b82525050565b6000612bf282846127df565b915081905092915050565b6000612c0982856127df565b9150612c1582846127df565b91508190509392505050565b6000612c2d82866127df565b9150612c3982856127df565b9150612c4582846127df565b9150819050949350505050565b6000612c5e8285612810565b9150612c6a82846127df565b9150612c75826129ca565b91508190509392505050565b6000612c8c826128f8565b9150612c9882846127df565b915081905092915050565b6000612cae82612984565b9150612cba82846127df565b915081905092915050565b6000612cd082612b28565b9150612cdc82856127df565b9150612ce782612961565b9150612cf382846127df565b9150612cfe82612a79565b91508190509392505050565b6000612d1582612b6e565b9150612d2182846127df565b915081905092915050565b6000612d3782612b91565b9150612d4382846127df565b915081905092915050565b6000602082019050612d63600083018461274f565b92915050565b6000608082019050612d7e600083018761274f565b612d8b602083018661274f565b612d986040830185612bd7565b8181036060830152612daa818461276d565b905095945050505050565b6000604082019050612dca600083018561274f565b612dd76020830184612bd7565b9392505050565b6000602082019050612df3600083018461275e565b92915050565b60006020820190508181036000830152612e1381846127a6565b905092915050565b60006040820190508181036000830152612e3581856127a6565b9050612e446020830184612bd7565b9392505050565b60006060820190508181036000830152612e6581866127a6565b9050612e746020830185612bd7565b612e81604083018461274f565b949350505050565b60006020820190508181036000830152612ea28161288f565b9050919050565b60006020820190508181036000830152612ec2816128b2565b9050919050565b60006020820190508181036000830152612ee2816128d5565b9050919050565b60006020820190508181036000830152612f028161291b565b9050919050565b60006020820190508181036000830152612f228161293e565b9050919050565b60006020820190508181036000830152612f42816129a7565b9050919050565b60006020820190508181036000830152612f62816129ed565b9050919050565b60006020820190508181036000830152612f8281612a10565b9050919050565b60006020820190508181036000830152612fa281612a33565b9050919050565b60006020820190508181036000830152612fc281612a56565b9050919050565b60006020820190508181036000830152612fe281612a9c565b9050919050565b6000602082019050818103600083015261300281612abf565b9050919050565b6000602082019050818103600083015261302281612ae2565b9050919050565b6000602082019050818103600083015261304281612b05565b9050919050565b6000602082019050818103600083015261306281612b4b565b9050919050565b6000602082019050818103600083015261308281612bb4565b9050919050565b600060208201905061309e6000830184612bd7565b92915050565b60006130ae6130bf565b90506130ba828261334f565b919050565b6000604051905090565b600067ffffffffffffffff8211156130e4576130e3613487565b5b6130ed826134b6565b9050602081019050919050565b60008190508160005260206000209050919050565b600081519050919050565b600081519050919050565b600082825260208201905092915050565b600082825260208201905092915050565b600081905092915050565b600061315d826132d1565b9150613168836132d1565b9250827fffffffffffffffffffffffffffffffffffffffffffffffffffffffffffffffff0382111561319d5761319c6133fa565b5b828201905092915050565b60006131b3826132d1565b91506131be836132d1565b9250826131ce576131cd613429565b5b828204905092915050565b60006131e4826132d1565b91506131ef836132d1565b9250817fffffffffffffffffffffffffffffffffffffffffffffffffffffffffffffffff0483118215151615613228576132276133fa565b5b828202905092915050565b600061323e826132d1565b9150613249836132d1565b92508282101561325c5761325b6133fa565b5b828203905092915050565b6000613272826132b1565b9050919050565b60008115159050919050565b60007fffffffff0000000000000000000000000000000000000000000000000000000082169050919050565b600073ffffffffffffffffffffffffffffffffffffffff82169050919050565b6000819050919050565b82818337600083830152505050565b60005b838110156133085780820151818401526020810190506132ed565b83811115613317576000848401525b50505050565b6000600282049050600182168061333557607f821691505b6020821081141561334957613348613458565b5b50919050565b613358826134b6565b810181811067ffffffffffffffff8211171561337757613376613487565b5b80604052505050565b600061338b826132d1565b91507fffffffffffffffffffffffffffffffffffffffffffffffffffffffffffffffff8214156133be576133bd6133fa565b5b600182019050919050565b60006133d4826132d1565b91506133df836132d1565b9250826133ef576133ee613429565b5b828206905092915050565b7f4e487b7100000000000000000000000000000000000000000000000000000000600052601160045260246000fd5b7f4e487b7100000000000000000000000000000000000000000000000000000000600052601260045260246000fd5b7f4e487b7100000000000000000000000000000000000000000000000000000000600052602260045260246000fd5b7f4e487b7100000000000000000000000000000000000000000000000000000000600052604160045260246000fd5b6000601f19601f8301169050919050565b7f4552433732313a207472616e7366657220746f206e6f6e20455243373231526560008201527f63656976657220696d706c656d656e7465720000000000000000000000000000602082015250565b7f4552433732313a207472616e736665722066726f6d20696e636f72726563742060008201527f6f776e6572000000000000000000000000000000000000000000000000000000602082015250565b7f4552433732313a20746f6b656e20616c7265616479206d696e74656400000000600082015250565b7f54484952445f574f524400000000000000000000000000000000000000000000600082015250565b7f4552433732313a207472616e7366657220746f20746865207a65726f2061646460008201527f7265737300000000000000000000000000000000000000000000000000000000602082015250565b7f4552433732313a20617070726f766520746f2063616c6c657200000000000000600082015250565b7f222c20226465736372697074696f6e223a20224120686967686c79206163636c60008201527f61696d656420636f6c6c656374696f6e206f6620737175617265732e222c202260208201527f696d616765223a2022646174613a696d6167652f7376672b786d6c3b6261736560408201527f36342c0000000000000000000000000000000000000000000000000000000000606082015250565b7f5345434f4e445f574f5244000000000000000000000000000000000000000000600082015250565b7f4552433732313a206f70657261746f7220717565727920666f72206e6f6e657860008201527f697374656e7420746f6b656e0000000000000000000000000000000000000000602082015250565b7f3c2f746578743e3c2f7376673e00000000000000000000000000000000000000600082015250565b7f4552433732313a20617070726f76652063616c6c6572206973206e6f74206f7760008201527f6e6572206e6f7220617070726f76656420666f7220616c6c0000000000000000602082015250565b7f4552433732313a2062616c616e636520717565727920666f7220746865207a6560008201527f726f206164647265737300000000000000000000000000000000000000000000602082015250565b7f4552433732313a206f776e657220717565727920666f72206e6f6e657869737460008201527f656e7420746f6b656e0000000000000000000000000000000000000000000000602082015250565b7f45524337323155524953746f726167653a2055524920736574206f66206e6f6e60008201527f6578697374656e7420746f6b656e000000000000000000000000000000000000602082015250565b7f227d000000000000000000000000000000000000000000000000000000000000600082015250565b7f4552433732313a206d696e7420746f20746865207a65726f2061646472657373600082015250565b7f45524337323155524953746f726167653a2055524920717565727920666f722060008201527f6e6f6e6578697374656e7420746f6b656e000000000000000000000000000000602082015250565b7f4552433732313a20617070726f76656420717565727920666f72206e6f6e657860008201527f697374656e7420746f6b656e0000000000000000000000000000000000000000602082015250565b7f4552433732314d657461646174613a2055524920717565727920666f72206e6f60008201527f6e6578697374656e7420746f6b656e0000000000000000000000000000000000602082015250565b7f7b226e616d65223a202200000000000000000000000000000000000000000000600082015250565b7f4552433732313a20617070726f76616c20746f2063757272656e74206f776e6560008201527f7200000000000000000000000000000000000000000000000000000000000000602082015250565b7f46495253545f574f524400000000000000000000000000000000000000000000600082015250565b7f646174613a6170706c69636174696f6e2f6a736f6e3b6261736536342c000000600082015250565b7f4552433732313a207472616e736665722063616c6c6572206973206e6f74206f60008201527f776e6572206e6f7220617070726f766564000000000000000000000000000000602082015250565b613b0881613267565b8114613b1357600080fd5b50565b613b1f81613279565b8114613b2a57600080fd5b50565b613b3681613285565b8114613b4157600080fd5b50565b613b4d816132d1565b8114613b5857600080fd5b5056fe416e204e465420772f20494420257320686173206265656e206d696e74656420746f2025734142434445464748494a4b4c4d4e4f505152535455565758595a6162636465666768696a6b6c6d6e6f707172737475767778797a303132333435363738392b2fa264697066735822122032460fa8508191eeb1fb6193e1480fd5e2a174a6576ead43ddff931468cf21b564736f6c634300080400333c73766720786d6c6e733d27687474703a2f2f7777772e77332e6f72672f323030302f73766727207072657365727665417370656374526174696f3d27784d696e594d696e206d656574272076696577426f783d273020302033353020333530273e3c7374796c653e2e62617365207b2066696c6c3a2077686974653b20666f6e742d66616d696c793a2073657269663b20666f6e742d73697a653a20323470783b207d3c2f7374796c653e3c726563742077696474683d273130302527206865696768743d2731303025272066696c6c3d27626c61636b27202f3e3c7465787420783d273530252720793d273530252720636c6173733d27626173652720646f6d696e616e742d626173656c696e653d276d6964646c652720746578742d616e63686f723d276d6964646c65273e",
  "linkReferences": {},
  "deployedLinkReferences": {}
}